:03000000020800F3
:0C080000787FE4F6D8FD75810E020847F1
:100993002020202020204C434420312020202020D0
:1009A30020200020202048656C6C6F20576F726CEC
:0609B30064212020200059
:030A3600010E4E60
:0D0A2000D2870000D2860000C287000022AD
:090A2D00C286C287D286D287225C
:030A3A008F0D22FB
:060A1000440CFF12091A5C
:0A0A1600C286D287D2862087FD2217
:02091A00AD0727
:10091C00E4FCC2867E007480A804088006CEA2E7A0
:10092C0013CE13D8F8FFEDFBEF5B6003D38001C34C
:08093C009287D2860CBC08DA98
:010944002290
:1008D500EFC454F0F508EF54F0F509120A20AF0DF6
:1008E50012091A120A16E509120A10120945E50934
:1008F5004408120A127F0A7E00120949E508120A05
:1009050010120945E5084408120A127F0A7E0012F2
:050915000949020A2D52
:10088C00EFC454F0F50BEF54F0F50C120A20AF0D39
:10089C0012091A120A16E50C440D120A1212094515
:1008AC00E50C4409120A127F0A7E00120949E50B75
:1008BC00440D120A12120945E50B4409120A127F63
:0908CC000A7E00120949020A2DFE
:1009B9008B088A09890AAB08AA09A90A1209F760EA
:1009C90013050AE50A7002050914F91209F7FF125D
:0509D900088C80E22201
:040945007F017E00B0
:10094900D3EF9400EE9400401A7D797C00ED1D7080
:10095900011CED4C70F7000000000000EF1F70E073
:030969001E80DD10
:01096C002268
:1009DE007F021208D57F281208D57F0C1208D57F0A
:0909EE00061208D57F010208D5AC
:10096D00AF0E120A3A1209DE7F801208D57BFF7A8C
:10097D000979931209B97FC01208D57BFF7A0979DD
:06098D00A61209B980FE6C
:10080C0002096DE493A3F8E493A34003F68001F28C
:10081C0008DFF48029E493A3F85407240CC8C333ED
:10082C00C4540F4420C8834004F456800146F6DFBC
:10083C00E4800B0102040810204080900A36E47E0C
:10084C00019360BCA3FF543F30E509541FFEE493B1
:10085C00A360010ECF54C025E060A840B8E493A378
:10086C00FAE493A3F8E493A3C8C582C8CAC583CAA3
:10087C00F0A3C8C582C8CAC583CADFE9DEE780BE5B
:010A390000BC
:1009F700BB010689828A83E0225002E722BBFE02FE
:090A0700E32289828A83E4932230
:00000001FF
