:030000000208A251
:0C08A200787FE4F6D8FD7581160208E9A5
:0C0B37002044697374616E63653A20000D
:030B540001164E39
:0D0B2A00D2870000D2860000C287000022A2
:090B4300C286C287D286D2872245
:030B58008F1522D4
:080B1800120B2AAF15120A8727
:0A0B2000C286D287D2862087FD220C
:020A8700AD07B9
:100A8900E4FCC2867E007480A804088006CEA2E732
:100A990013CE13D8F8FFEDFBEF5B6003D38001C3DE
:080AA9009287D2860CBC08DA2A
:010AB1002222
:1009DA00EFC454F0F510EF54F0F511120B18E511AD
:1009EA00120A56E5114408FF120A87120B207F0AE1
:1009FA007E00120A63E510120A56E5104408FF1237
:0F0A0A000A87120B207F0A7E00120A63020B4339
:10099700EFC454F0F513EF54F0F514120B18E514E7
:1009A700440D120A58E5144409FF120A87120B2056
:1009B7007F0A7E00120A63E513440D120A58E513F5
:1009C7004409FF120A87120B207F0A7E00120A636E
:0309D700020B43CD
:100ADA008B108A118912AB10AA11A9121208006090
:100AEA00130512E5127002051114F9120800FF121B
:050AFA00099780E222D3
:0D0A5600440CFF120A87120B207F017E0066
:100A6300D3EF9400EE9400401A7D797C00ED1D7065
:100A7300011CED4C70F7000000000000EF1F70E058
:030A83001E80DDF5
:010A8600224D
:100AFF007F021209DA7F281209DA7F0C1209DA7FD6
:090B0F00061209DA7F010209DA7D
:080B4C00D2B2120A5FC2B2220C
:100AB200120B4C30B3FDE4F58CF58AD28C20B3FDD9
:100AC200C28CAF8CEF75F020A4FFAEF0AD8AEF4D73
:080AD200FF7C007D3A02084D93
:10092E008E108F118B128A1389147C007D6412082D
:10093E004DEF2430120819AE10AF117C007D0A1253
:10094E00084D7C007D0A12084DED2430AB12AA131F
:10095E00A91490000112082BAE10AF117C007D0A75
:10096E0012084DED2430AB12AA13A91490000212F6
:10097E00082B900003746312082B900004746D1200
:09098E00082B900005E402082B7F
:100A1900AF16120B58120AFF7F801209DA7BFF7A90
:100A29000B7937120ADA120AB28E088F097B007A1B
:100A390000790A12092E7FC01209DA7B007A00793F
:0D0A49000A120ADA7FF47E01120A6380D9D6
:1008AE00020A19E493A3F8E493A34003F68001F23D
:1008BE0008DFF48029E493A3F85407240CC8C3334B
:1008CE00C4540F4420C8834004F456800146F6DF1A
:1008DE00E4800B0102040810204080900B54E47E4B
:1008EE00019360BCA3FF543F30E509541FFEE4930F
:1008FE00A360010ECF54C025E060A840B8E493A3D6
:10090E00FAE493A3F8E493A3C8C582C8CAC583CA00
:10091E00F0A3C8C582C8CAC583CADFE9DEE780BEB8
:010B5700009D
:10080000BB010689828A83E0225002E722BBFE02F6
:09081000E32289828A83E4932229
:10081900BB010689828A83F0225002F722BBFE01BE
:02082900F322B8
:10082B00F8BB010DE58229F582E5833AF583E8F003
:10083B00225006E92582C8F622BBFE05E92582C8AF
:02084B00F22297
:10084D00BC000BBE0029EF8DF084FFADF022E4CC8F
:10085D00F875F008EF2FFFEE33FEEC33FCEE9DEC58
:10086D00984005FCEE9DFE0FD5F0E9E4CEFD22ED9E
:10087D00F8F5F0EE8420D21CFEADF075F008EF2FE8
:10088D00FFED33FD4007985006D5F0F222C398FDD9
:05089D000FD5F0EA2276
:00000001FF
